S00F00004C4344546573742E73726563A2
S11300000C942A000C9447000C9447000C9447006D
S11300100C9447000C9447000C9447000C94470040
S11300200C9447000C9447000C9447000C94470030
S11300300C9447000C9447000C9447000C94470020
S11300400C9447000C9447000C9447000C94470010
S11300500C94470011241FBECFE5D8E0DEBFCDBF0E
S113006010E0A0E6B0E0E6E5F1E002C005900D92F4
S1130070AC36B107D9F710E0ACE6B0E001C01D9290
S1130080AC36B107E1F70E94A2000C94A9000C94CD
S113009000008BBBC298C198C09A8FE097E2019789
S11300A0F1F700C00000C09887EA91E60197F1F7E4
S11300B000C0000008958FEF8ABBB89AB99ABA9A23
S11300C0C09883EF91E00197F1F700C0000088E346
S11300D00E9449008EE00E94490081E00E9449008C
S11300E083EF91E00197F1F700C0000086E00E94E1
S11300F0490008958BBBC29AC198C09A8FE097E2D9
S11301000197F1F700C00000C09887EA91E60197D3
S1130110F1F700C0000008950F931F93CF938C0153
S1130120FC018081882351F0C0E00E947A00CF5FF7
S1130130F801EC0FF11D80818823B9F7CF911F914D
S11301400F9108950E945B0080E690E00E948C006D
S1090150FFCFF894FFCF7D
S10F0156414C4C414820414B42455200B2
S9030000FC
