:100000000C942A000C943F000C943F000C943F0089
:100010000C943F000C943F000C943F000C943F0064
:100020000C943F000C943F000C943F000C943F0054
:100030000C943F000C943F000C943F000C943F0044
:100040000C943F000C943F000C943F000C943F0034
:100050000C943F0011241FBECFE5D8E0DEBFCDBF1A
:1000600010E0A0E6B0E0E6E8F2E002C005900D92F4
:10007000AC36B107D9F70E9401010C9441010C94F0
:100080000000982F907F9BBBC198C298C39AEFE560
:10009000FAEE3197F1F700C00000C398EFE5FAEEF1
:1000A0003197F1F700C000008295807F8BBBC39A27
:1000B0008FE59AEE0197F1F700C00000C398EFE5D5
:1000C000FAEE3197F1F700C000000895982F907F65
:1000D0009BBBC19AC298C39AEFE5FAEE3197F1F74C
:1000E00000C00000C398EFE5FAEE3197F1F700C0C9
:1000F00000008295807F8BBBC39A8FE59AEE0197B3
:10010000F1F700C00000C398EFE5FAEE3197F1F780
:1001100000C0000008950F931F93CF93FC018081CE
:10012000882359F08F01C0E00E946600CF5FF8017C
:10013000EC0FF11D80818111F7CFCF911F910F91AD
:1001400008958FE59AEE0197F1F700C000008FEF58
:100150008ABBBB9ABA9AB99AC3989FEB24ED81E007
:10016000915020408040E1F700C0000083E30E94EE
:10017000410082E30E94410088E20E9441008EE03B
:100180000E94410081E00E9441009FEB24ED81E04C
:10019000915020408040E1F700C0000086E00E94BE
:1001A00041009FEB24ED81E0915020408040E1F739
:1001B00000C000000895CF93DF93CDB7DEB76097FE
:1001C0000FB6F894DEBF0FBECDBF1A821982FE01B2
:1001D00033962EE0DF011D922A95E9F74AE0BE0131
:1001E0006F5F7F4F0E940C01CE0101960E948B0031
:1001F00060960FB6F894DEBF0FBECDBFDF91CF91F2
:1002000008950E94A10080E690E00E948B0084E99E
:1002100091E10E94DB00FFCFBB274A3031F49923E4
:1002200022F4BDE2909581959F4F0C941801BB2755
:10023000FB015527AA27880F991FAA1FA41710F0A2
:10024000A41B83955051B9F7A05DAA3308F0A95DAE
:10025000A193009779F7B111B1931192CB010C944E
:100260003101DC01FC01672F71917723E1F73297AF
:1002700004C07C916D9370836291AE17BF07C8F381
:060280000895F894FFCF81
:0C028600414C4C414820414B4245520085
:00000001FF
