S00E000054696D6572732E73726563A2
S11300000C942A000C9447000C9447000C9447006D
S11300100C9447000C9447000C9447000C94470040
S11300200C9447000C9447000C9447000C94470030
S11300300C9447000C9447000C9447000C94470020
S11300400C9447000C9447000C9447000C94470010
S11300500C94470011241FBECFE5D8E0DEBFCDBF0E
S113006010E0A0E6B0E0ECEDF0E002C005900D92E7
S1130070A036B107D9F710E0A0E6B0E001C01D92A8
S1130080A036B107E1F70E9449000C946C000C946F
S1130090000080EE81BB83B78F7B83BF83B7877FEC
S11300A083BF83E882BF83B78E7F83BF83B78260B9
S11300B083BF83B78B7F83BF34E623E8832F08B6DF
S11300C000FEFDCF22BF98B7916098BF8150B9F769
S10F00D082B3809582BBF2CFF894FFCF7E
S9030000FC
