:100000000C942A000C9447000C9447000C94470071
:100010000C9447000C9447000C9447000C94470044
:100020000C9447000C9447000C9447000C94470034
:100030000C9447000C9447000C9447000C94470024
:100040000C9447000C9447000C9447000C94470014
:100050000C94470011241FBECFE5D8E0DEBFCDBF12
:1000600010E0A0E6B0E0E8EDF0E002C005900D92EF
:10007000A036B107D9F710E0A0E6B0E001C01D92AC
:10008000A036B107E1F70E9449000C946A000C9475
:10009000000080EE81BB83B78F7B83BF83B788600E
:1000A00083BF8DE78CBF83B78E7F83BF83B78260AA
:1000B00083BF83B78B7F83BF24E6822F08B601FE00
:1000C000FDCF98B7926098BF8150C1F782B38095F9
:0800D00082BBF3CFF894FFCFCF
:00000001FF
