S00B00004144432E7372656351
S11300000C942A000C9447000C9447000C9447006D
S11300100C9447000C9447000C9447000C94470040
S11300200C9447000C9447000C9447000C94470030
S11300300C9447000C9447000C9447000C94470020
S11300400C942A010C9447000C9447000C9447002C
S11300500C94470011241FBECFE5D8E0DEBFCDBF0E
S113006010E0A0E6B0E0E4E3F3E002C005900D92F6
S1130070A036B107D9F720E0A0E6B0E001C01D9298
S1130080A236B207E1F70E940B010C9498010C947C
S11300900000982F907F9BBBC198C298C39AEFE54C
S11300A0FAEE3197F1F700C00000C398EFE5FAEEDD
S11300B03197F1F700C000008295807F8BBBC39A13
S11300C08FE59AEE0197F1F700C00000C398EFE5C1
S11300D0FAEE3197F1F700C000000895982F907F51
S11300E09BBBC19AC298C39AEFE5FAEE3197F1F738
S11300F000C00000C398EFE5FAEE3197F1F700C0B5
S113010000008295807F8BBBC39A8FE59AEE01979E
S1130110F1F700C00000C398EFE5FAEE3197F1F76C
S113012000C0000008958FE59AEE0197F1F700C032
S113013000008FEF8ABBBB9ABA9AB99AC3989FEB17
S113014024ED81E0915020408040E1F700C00000A0
S113015083E30E94490082E30E94490088E20E94EE
S113016049008EE00E94490081E00E9449009FEB13
S113017024ED81E0915020408040E1F700C0000070
S113018086E00E9449009FEB24ED81E091502040DD
S11301908040E1F700C000000895811107C060317C
S11301A068F480E8860F0E9449000895813031F494
S11301B0603120F480EC860F0E9449000895CF93AB
S11301C0DF93EC018881882331F021960E946E0030
S11301D089918111FBCFDF91CF910895CF93DF9364
S11301E0CDB7DEB764970FB6F894DEBF0FBECDBFB0
S11301F04AE0BE016F5F7F4F0E946301CE0101960A
S11302000E94DF0064960FB6F894DEBF0FBECDBF28
S1130210DF91CF9108958FEF81BB0E94930017B8AF
S11302203E9A3F987894339A3098319A329A379A12
S1130230369A8091600090916100843F914010F063
S1130240969A01C096988FE59AEE0197F1F700C04F
S11302500000EFCF1F920F920FB60F9211242F932D
S11302603F934F935F936F937F938F939F93AF933A
S1130270BF93EF93FF9384B190E0909361008093D8
S1130280600025B1922B909361008093600060E040
S113029080E00E94CD0080916000909161000E94F6
S11302A0EE00369AFF91EF91BF91AF919F918F919C
S11302B07F916F915F914F913F912F910F900FBE5E
S11302C00F901F901895BB274A3031F4992322F4DC
S11302D0BDE2909581959F4F0C946F01BB27FB0164
S11302E05527AA27880F991FAA1FA41710F0A41B2B
S11302F083955051B9F7A05DAA3308F0A95DA19385
S1130300009779F7B111B1931192CB010C94880144
S1130310DC01FC01672F71917723E1F7329704C068
S11303207C916D9370836291AE17BF07C8F30895F3
S1070330F894FFCF6B
S9030000FC
